{
  "_format": "hh-sol-artifact-1",
  "contractName": "ApproveForAll",
  "sourceName": "contracts/ApproveForAll.sol",
  "abi": [
    {
      "inputs": [
        {
          "internalType": "address",
          "name": "to",
          "type": "address"
        },
        {
          "internalType": "address[]",
          "name": "nftAddresses",
          "type": "address[]"
        },
        {
          "internalType": "uint256[]",
          "name": "nftIds",
          "type": "uint256[]"
        }
      ],
      "name": "approveForAll",
      "outputs": [],
      "stateMutability": "nonpayable",
      "type": "function"
    }
  ],
  "bytecode": "0x608060405234801561001057600080fd5b50610411806100206000396000f3fe608060405234801561001057600080fd5b506004361061002b5760003560e01c80635afc3db114610030575b600080fd5b61004a60048036038101906100459190610240565b61004c565b005b60005b8484905081101561016657848482818110610093577f4e487b7100000000000000000000000000000000000000000000000000000000600052603260045260246000fd5b90506020020160208101906100a89190610217565b73ffffffffffffffffffffffffffffffffffffffff1663095ea7b3878585858181106100fd577f4e487b7100000000000000000000000000000000000000000000000000000000600052603260045260246000fd5b905060200201356040518363ffffffff1660e01b81526004016101219291906102e7565b600060405180830381600087803b15801561013b57600080fd5b505af115801561014f573d6000803e3d6000fd5b50505050808061015e9061034c565b91505061004f565b505050505050565b60008135905061017d816103c4565b92915050565b60008083601f84011261019557600080fd5b8235905067ffffffffffffffff8111156101ae57600080fd5b6020830191508360208202830111156101c657600080fd5b9250929050565b60008083601f8401126101df57600080fd5b8235905067ffffffffffffffff8111156101f857600080fd5b60208301915083602082028301111561021057600080fd5b9250929050565b60006020828403121561022957600080fd5b60006102378482850161016e565b91505092915050565b60008060008060006060868803121561025857600080fd5b60006102668882890161016e565b955050602086013567ffffffffffffffff81111561028357600080fd5b61028f88828901610183565b9450945050604086013567ffffffffffffffff8111156102ae57600080fd5b6102ba888289016101cd565b92509250509295509295909350565b6102d281610310565b82525050565b6102e181610342565b82525050565b60006040820190506102fc60008301856102c9565b61030960208301846102d8565b9392505050565b600061031b82610322565b9050919050565b600073ffffffffffffffffffffffffffffffffffffffff82169050919050565b6000819050919050565b600061035782610342565b91507fffffffffffffffffffffffffffffffffffffffffffffffffffffffffffffffff82141561038a57610389610395565b5b600182019050919050565b7f4e487b7100000000000000000000000000000000000000000000000000000000600052601160045260246000fd5b6103cd81610310565b81146103d857600080fd5b5056fea2646970667358221220afe609672b9b8ee5828e743dee98ab1284780ba825083c98bdad89da95c3748d64736f6c63430008040033",
  "linkReferences": {},
  "deployedLinkReferences": {}
}