{
  "_format": "hh-sol-artifact-1",
  "contractName": "WiseTradeV1",
  "sourceName": "contracts/WiseTradeV1.sol",
  "abi": [
    {
      "inputs": [
        {
          "internalType": "address",
          "name": "contractOwnerAddress",
          "type": "address"
        }
      ],
      "stateMutability": "nonpayable",
      "type": "constructor"
    },
    {
      "anonymous": false,
      "inputs": [
        {
          "indexed": true,
          "internalType": "address",
          "name": "previousOwner",
          "type": "address"
        },
        {
          "indexed": true,
          "internalType": "address",
          "name": "newOwner",
          "type": "address"
        }
      ],
      "name": "OwnershipTransferred",
      "type": "event"
    },
    {
      "anonymous": false,
      "inputs": [
        {
          "indexed": true,
          "internalType": "address",
          "name": "canceledBy",
          "type": "address"
        },
        {
          "indexed": true,
          "internalType": "uint256",
          "name": "swapId",
          "type": "uint256"
        }
      ],
      "name": "SwapCanceled",
      "type": "event"
    },
    {
      "anonymous": false,
      "inputs": [
        {
          "indexed": true,
          "internalType": "address",
          "name": "from",
          "type": "address"
        },
        {
          "indexed": true,
          "internalType": "address",
          "name": "to",
          "type": "address"
        },
        {
          "indexed": true,
          "internalType": "uint256",
          "name": "swapId",
          "type": "uint256"
        }
      ],
      "name": "SwapExecuted",
      "type": "event"
    },
    {
      "anonymous": false,
      "inputs": [
        {
          "indexed": true,
          "internalType": "address",
          "name": "from",
          "type": "address"
        },
        {
          "indexed": true,
          "internalType": "address",
          "name": "to",
          "type": "address"
        },
        {
          "indexed": true,
          "internalType": "uint256",
          "name": "swapId",
          "type": "uint256"
        },
        {
          "indexed": false,
          "internalType": "address[]",
          "name": "nftAddressInit",
          "type": "address[]"
        },
        {
          "indexed": false,
          "internalType": "uint256[]",
          "name": "nftIdsInit",
          "type": "uint256[]"
        },
        {
          "indexed": false,
          "internalType": "address[]",
          "name": "nftAddressescounter",
          "type": "address[]"
        },
        {
          "indexed": false,
          "internalType": "uint256[]",
          "name": "nftIdscounter",
          "type": "uint256[]"
        },
        {
          "indexed": false,
          "internalType": "uint256",
          "name": "etherValue",
          "type": "uint256"
        }
      ],
      "name": "SwapProposed",
      "type": "event"
    },
    {
      "inputs": [
        {
          "internalType": "uint256",
          "name": "swapId",
          "type": "uint256"
        }
      ],
      "name": "acceptSwap",
      "outputs": [],
      "stateMutability": "payable",
      "type": "function"
    },
    {
      "inputs": [
        {
          "internalType": "uint256",
          "name": "swapId",
          "type": "uint256"
        }
      ],
      "name": "cancelSwap",
      "outputs": [],
      "stateMutability": "nonpayable",
      "type": "function"
    },
    {
      "inputs": [
        {
          "internalType": "address",
          "name": "operator",
          "type": "address"
        },
        {
          "internalType": "address",
          "name": "from",
          "type": "address"
        },
        {
          "internalType": "uint256",
          "name": "tokenId",
          "type": "uint256"
        },
        {
          "internalType": "bytes",
          "name": "data",
          "type": "bytes"
        }
      ],
      "name": "onERC721Received",
      "outputs": [
        {
          "internalType": "bytes4",
          "name": "",
          "type": "bytes4"
        }
      ],
      "stateMutability": "pure",
      "type": "function"
    },
    {
      "inputs": [],
      "name": "owner",
      "outputs": [
        {
          "internalType": "address",
          "name": "",
          "type": "address"
        }
      ],
      "stateMutability": "view",
      "type": "function"
    },
    {
      "inputs": [
        {
          "internalType": "address",
          "name": "counterpart",
          "type": "address"
        },
        {
          "internalType": "address[]",
          "name": "nftAddressesInit",
          "type": "address[]"
        },
        {
          "internalType": "uint256[]",
          "name": "nftIdsInit",
          "type": "uint256[]"
        },
        {
          "internalType": "address[]",
          "name": "nftAddressescounter",
          "type": "address[]"
        },
        {
          "internalType": "uint256[]",
          "name": "nftIdscounter",
          "type": "uint256[]"
        }
      ],
      "name": "proposeSwap",
      "outputs": [],
      "stateMutability": "payable",
      "type": "function"
    },
    {
      "inputs": [],
      "name": "renounceOwnership",
      "outputs": [],
      "stateMutability": "nonpayable",
      "type": "function"
    },
    {
      "inputs": [
        {
          "internalType": "address",
          "name": "newOwner",
          "type": "address"
        }
      ],
      "name": "transferOwnership",
      "outputs": [],
      "stateMutability": "nonpayable",
      "type": "function"
    },
    {
      "inputs": [
        {
          "internalType": "address payable",
          "name": "recipient",
          "type": "address"
        }
      ],
      "name": "withdrawEther",
      "outputs": [],
      "stateMutability": "nonpayable",
      "type": "function"
    }
  ],
  "bytecode": "0x60806040523480156200001157600080fd5b5060405162002b4338038062002b43833981810160405281019062000037919062000296565b620000576200004b6200007460201b60201c565b6200007c60201b60201c565b6200006d816200014060201b620014d21760201c565b506200042b565b600033905090565b60008060009054906101000a900473ffffffffffffffffffffffffffffffffffffffff169050816000806101000a81548173ffffffffffffffffffffffffffffffffffffffff021916908373ffffffffffffffffffffffffffffffffffffffff1602179055508173ffffffffffffffffffffffffffffffffffffffff168173ffffffffffffffffffffffffffffffffffffffff167f8be0079c531659141344cd1fd0a4f28419497f9722a3daafe3b4186f6b6457e060405160405180910390a35050565b620001506200007460201b60201c565b73ffffffffffffffffffffffffffffffffffffffff16620001766200025660201b60201c565b73ffffffffffffffffffffffffffffffffffffffff1614620001cf576040517f08c379a0000000000000000000000000000000000000000000000000000000008152600401620001c69062000332565b60405180910390fd5b600073ffffffffffffffffffffffffffffffffffffffff168173ffffffffffffffffffffffffffffffffffffffff16141562000242576040517f08c379a0000000000000000000000000000000000000000000000000000000008152600401620002399062000310565b60405180910390fd5b62000253816200007c60201b60201c565b50565b60008060009054906101000a900473ffffffffffffffffffffffffffffffffffffffff16905090565b600081519050620002908162000411565b92915050565b600060208284031215620002a957600080fd5b6000620002b9848285016200027f565b91505092915050565b6000620002d160268362000354565b9150620002de8262000399565b604082019050919050565b6000620002f860208362000354565b91506200030582620003e8565b602082019050919050565b600060208201905081810360008301526200032b81620002c2565b9050919050565b600060208201905081810360008301526200034d81620002e9565b9050919050565b600082825260208201905092915050565b6000620003728262000379565b9050919050565b600073ffffffffffffffffffffffffffffffffffffffff82169050919050565b7f4f776e61626c653a206e6577206f776e657220697320746865207a65726f206160008201527f6464726573730000000000000000000000000000000000000000000000000000602082015250565b7f4f776e61626c653a2063616c6c6572206973206e6f7420746865206f776e6572600082015250565b6200041c8162000365565b81146200042857600080fd5b50565b612708806200043b6000396000f3fe60806040526004361061007b5760003560e01c80638da5cb5b1161004e5780638da5cb5b14610119578063af933b5714610144578063cc70f2e01461016d578063f2fde38b146101895761007b565b8063150b7a02146100805780631bf33004146100bd57806354d6a2b7146100d9578063715018a614610102575b600080fd5b34801561008c57600080fd5b506100a760048036038101906100a29190611ae7565b6101b2565b6040516100b49190611feb565b60405180910390f35b6100d760048036038101906100d29190611c4a565b6101df565b005b3480156100e557600080fd5b5061010060048036038101906100fb9190611c4a565b6109b4565b005b34801561010e57600080fd5b50610117610f05565b005b34801561012557600080fd5b5061012e610f8d565b60405161013b9190611f0f565b60405180910390f35b34801561015057600080fd5b5061016b60048036038101906101669190611abe565b610fb6565b005b61018760048036038101906101829190611b62565b6110f9565b005b34801561019557600080fd5b506101b060048036038101906101ab9190611a6c565b6114d2565b005b60007f150b7a023d4804d13e8c85fb27262cb750cf6ba9f9dd3bb30d90f482ceeb4b1f9050949350505050565b3373ffffffffffffffffffffffffffffffffffffffff166003600083815260200190815260200160002060040160009054906101000a900473ffffffffffffffffffffffffffffffffffffffff1673ffffffffffffffffffffffffffffffffffffffff1614610283576040517f08c379a000000000000000000000000000000000000000000000000000000000815260040161027a90612046565b60405180910390fd5b60006003600083815260200190815260200160002060070154146102dc576040517f08c379a00000000000000000000000000000000000000000000000000000000081526004016102d390612026565b60405180910390fd5b60006003600083815260200190815260200160002060050180548060200260200160405190810160405280929190818152602001828054801561037457602002820191906000526020600020905b8160009054906101000a900473ffffffffffffffffffffffffffffffffffffffff1673ffffffffffffffffffffffffffffffffffffffff168152602001906001019080831161032a575b505050505090506000600360008481526020019081526020016000206006018054806020026020016040519081016040528092919081815260200182805480156103dd57602002820191906000526020600020905b8154815260200190600101908083116103c9575b505050505090506000805b8351811015610550573373ffffffffffffffffffffffffffffffffffffffff16848281518110610441577f4e487b7100000000000000000000000000000000000000000000000000000000600052603260045260246000fd5b602002602001015173ffffffffffffffffffffffffffffffffffffffff16636352211e85848151811061049d577f4e487b7100000000000000000000000000000000000000000000000000000000600052603260045260246000fd5b60200260200101516040518263ffffffff1660e01b81526004016104c191906120e6565b60206040518083038186803b1580156104d957600080fd5b505afa1580156104ed573d6000803e3d6000fd5b505050506040513d601f19601f820116820180604052508101906105119190611a95565b73ffffffffffffffffffffffffffffffffffffffff16141561053d5760018261053a9190612201565b91505b8080610548906123b2565b9150506103e8565b5082518114156109a45761069a336003600087815260200190815260200160002060000160009054906101000a900473ffffffffffffffffffffffffffffffffffffffff166003600088815260200190815260200160002060050180548060200260200160405190810160405280929190818152602001828054801561062b57602002820191906000526020600020905b8160009054906101000a900473ffffffffffffffffffffffffffffffffffffffff1673ffffffffffffffffffffffffffffffffffffffff16815260200190600101908083116105e1575b50505050506003600089815260200190815260200160002060060180548060200260200160405190810160405280929190818152602001828054801561069057602002820191906000526020600020905b81548152602001906001019080831161067c575b50505050506115ca565b3460036000868152602001908152602001600020600701819055506003600085815260200190815260200160002060070154600260008282546106dd9190612201565b92505081905550610824306003600087815260200190815260200160002060040160009054906101000a900473ffffffffffffffffffffffffffffffffffffffff16600360008881526020019081526020016000206001018054806020026020016040519081016040528092919081815260200182805480156107b557602002820191906000526020600020905b8160009054906101000a900473ffffffffffffffffffffffffffffffffffffffff1673ffffffffffffffffffffffffffffffffffffffff168152602001906001019080831161076b575b50505050506003600089815260200190815260200160002060020180548060200260200160405190810160405280929190818152602001828054801561081a57602002820191906000526020600020905b815481526020019060010190808311610806575b50505050506115ca565b836003600086815260200190815260200160002060040160009054906101000a900473ffffffffffffffffffffffffffffffffffffffff1673ffffffffffffffffffffffffffffffffffffffff166003600087815260200190815260200160002060000160009054906101000a900473ffffffffffffffffffffffffffffffffffffffff1673ffffffffffffffffffffffffffffffffffffffff167fbad29f2bbbf6bb1e15563203bcdb0dd660c54eab078763eb66f797efa8f5e8c160405160405180910390a460036000858152602001908152602001600020600080820160006101000a81549073ffffffffffffffffffffffffffffffffffffffff021916905560018201600061093691906117d0565b60028201600061094691906117f1565b60038201600090556004820160006101000a81549073ffffffffffffffffffffffffffffffffffffffff021916905560058201600061098591906117d0565b60068201600061099591906117f1565b600782016000905550506109ae565b6109ad846109b4565b5b50505050565b3373ffffffffffffffffffffffffffffffffffffffff166003600083815260200190815260200160002060000160009054906101000a900473ffffffffffffffffffffffffffffffffffffffff1673ffffffffffffffffffffffffffffffffffffffff161480610a8557503373ffffffffffffffffffffffffffffffffffffffff166003600083815260200190815260200160002060040160009054906101000a900473ffffffffffffffffffffffffffffffffffffffff1673ffffffffffffffffffffffffffffffffffffffff16145b610ac4576040517f08c379a0000000000000000000000000000000000000000000000000000000008152600401610abb906120a6565b60405180910390fd5b610c04306003600084815260200190815260200160002060000160009054906101000a900473ffffffffffffffffffffffffffffffffffffffff1660036000858152602001908152602001600020600101805480602002602001604051908101604052809291908181526020018280548015610b9557602002820191906000526020600020905b8160009054906101000a900473ffffffffffffffffffffffffffffffffffffffff1673ffffffffffffffffffffffffffffffffffffffff1681526020019060010190808311610b4b575b505050505060036000868152602001908152602001600020600201805480602002602001604051908101604052809291908181526020018280548015610bfa57602002820191906000526020600020905b815481526020019060010190808311610be6575b50505050506115ca565b6000600360008381526020019081526020016000206003015414610d0757600360008281526020019081526020016000206003015460026000828254610c4a9190612257565b92505081905550600060036000838152602001908152602001600020600301549050600060036000848152602001908152602001600020600301819055506003600083815260200190815260200160002060000160009054906101000a900473ffffffffffffffffffffffffffffffffffffffff1673ffffffffffffffffffffffffffffffffffffffff166108fc829081150290604051600060405180830381858888f19350505050158015610d04573d6000803e3d6000fd5b50505b6000600360008381526020019081526020016000206007015414610e0a57600360008281526020019081526020016000206007015460026000828254610d4d9190612257565b92505081905550600060036000838152602001908152602001600020600701549050600060036000848152602001908152602001600020600701819055506003600083815260200190815260200160002060040160009054906101000a900473ffffffffffffffffffffffffffffffffffffffff1673ffffffffffffffffffffffffffffffffffffffff166108fc829081150290604051600060405180830381858888f19350505050158015610e07573d6000803e3d6000fd5b50505b803373ffffffffffffffffffffffffffffffffffffffff167fa715d65b6e7107257e3f1469a8b36f0003c039bf6cc6279c26d814b77efb658060405160405180910390a360036000828152602001908152602001600020600080820160006101000a81549073ffffffffffffffffffffffffffffffffffffffff0219169055600182016000610e9991906117d0565b600282016000610ea991906117f1565b60038201600090556004820160006101000a81549073ffffffffffffffffffffffffffffffffffffffff0219169055600582016000610ee891906117d0565b600682016000610ef891906117f1565b6007820160009055505050565b610f0d61168c565b73ffffffffffffffffffffffffffffffffffffffff16610f2b610f8d565b73ffffffffffffffffffffffffffffffffffffffff1614610f81576040517f08c379a0000000000000000000000000000000000000000000000000000000008152600401610f7890612086565b60405180910390fd5b610f8b6000611694565b565b60008060009054906101000a900473ffffffffffffffffffffffffffffffffffffffff16905090565b610fbe61168c565b73ffffffffffffffffffffffffffffffffffffffff16610fdc610f8d565b73ffffffffffffffffffffffffffffffffffffffff1614611032576040517f08c379a000000000000000000000000000000000000000000000000000000000815260040161102990612086565b60405180910390fd5b600073ffffffffffffffffffffffffffffffffffffffff168173ffffffffffffffffffffffffffffffffffffffff1614156110a2576040517f08c379a0000000000000000000000000000000000000000000000000000000008152600401611099906120c6565b60405180910390fd5b8073ffffffffffffffffffffffffffffffffffffffff166108fc600254476110ca9190612257565b9081150290604051600060405180830381858888f193505050501580156110f5573d6000803e3d6000fd5b5050565b878780806020026020016040519081016040528093929190818152602001838360200280828437600081840152601f19601f82011690508083019250505050505050868680806020026020016040519081016040528093929190818152602001838360200280828437600081840152601f19601f8201169050808301925050505050505080518251146111c1576040517f08c379a00000000000000000000000000000000000000000000000000000000081526004016111b890612066565b60405180910390fd5b858580806020026020016040519081016040528093929190818152602001838360200280828437600081840152601f19601f82011690508083019250505050505050848480806020026020016040519081016040528093929190818152602001838360200280828437600081840152601f19601f820116905080830192505050505050508051825114611289576040517f08c379a000000000000000000000000000000000000000000000000000000000815260040161128090612066565b60405180910390fd5b600180600082825461129b9190612201565b9250508190555061133033308e8e80806020026020016040519081016040528093929190818152602001838360200280828437600081840152601f19601f820116905080830192505050505050508d8d80806020026020016040519081016040528093929190818152602001838360200280828437600081840152601f19601f820116905080830192505050505050506115ca565b60006003600060015481526020019081526020016000209050338160000160006101000a81548173ffffffffffffffffffffffffffffffffffffffff021916908373ffffffffffffffffffffffffffffffffffffffff1602179055508c8c82600101919061139f929190611812565b508a8a8260020191906113b39291906118b2565b5088888260050191906113c7929190611812565b5086868260060191906113db9291906118b2565b503481600301819055508060030154600260008282546113fb9190612201565b925050819055508d8160040160006101000a81548173ffffffffffffffffffffffffffffffffffffffff021916908373ffffffffffffffffffffffffffffffffffffffff1602179055506001548e73ffffffffffffffffffffffffffffffffffffffff163373ffffffffffffffffffffffffffffffffffffffff167f98a3e5937d32b0f142498fa84d7a454f36bda700ae5145c27b192309a4f5f463846001018f8f8f8f8f8f8b600301546040516114ba989796959493929190611f76565b60405180910390a45050505050505050505050505050565b6114da61168c565b73ffffffffffffffffffffffffffffffffffffffff166114f8610f8d565b73ffffffffffffffffffffffffffffffffffffffff161461154e576040517f08c379a000000000000000000000000000000000000000000000000000000000815260040161154590612086565b60405180910390fd5b600073ffffffffffffffffffffffffffffffffffffffff168173ffffffffffffffffffffffffffffffffffffffff1614156115be576040517f08c379a00000000000000000000000000000000000000000000000000000000081526004016115b590612006565b60405180910390fd5b6115c781611694565b50565b60005b8151811015611685576116728585858481518110611614577f4e487b7100000000000000000000000000000000000000000000000000000000600052603260045260246000fd5b6020026020010151858581518110611655577f4e487b7100000000000000000000000000000000000000000000000000000000600052603260045260246000fd5b602002602001015160405180602001604052806000815250611758565b808061167d906123b2565b9150506115cd565b5050505050565b600033905090565b60008060009054906101000a900473ffffffffffffffffffffffffffffffffffffffff169050816000806101000a81548173ffffffffffffffffffffffffffffffffffffffff021916908373ffffffffffffffffffffffffffffffffffffffff1602179055508173ffffffffffffffffffffffffffffffffffffffff168173ffffffffffffffffffffffffffffffffffffffff167f8be0079c531659141344cd1fd0a4f28419497f9722a3daafe3b4186f6b6457e060405160405180910390a35050565b8273ffffffffffffffffffffffffffffffffffffffff1663b88d4fde868685856040518563ffffffff1660e01b81526004016117979493929190611f2a565b600060405180830381600087803b1580156117b157600080fd5b505af11580156117c5573d6000803e3d6000fd5b505050505050505050565b50805460008255906000526020600020908101906117ee91906118ff565b50565b508054600082559060005260206000209081019061180f91906118ff565b50565b8280548282559060005260206000209081019282156118a1579160200282015b828111156118a057823573ffffffffffffffffffffffffffffffffffffffff168260006101000a81548173ffffffffffffffffffffffffffffffffffffffff021916908373ffffffffffffffffffffffffffffffffffffffff16021790555091602001919060010190611832565b5b5090506118ae91906118ff565b5090565b8280548282559060005260206000209081019282156118ee579160200282015b828111156118ed5782358255916020019190600101906118d2565b5b5090506118fb91906118ff565b5090565b5b80821115611918576000816000905550600101611900565b5090565b600061192f61192a84612126565b612101565b90508281526020810184848401111561194757600080fd5b611952848285612325565b509392505050565b6000813590506119698161268d565b92915050565b60008151905061197e8161268d565b92915050565b600081359050611993816126a4565b92915050565b60008083601f8401126119ab57600080fd5b8235905067ffffffffffffffff8111156119c457600080fd5b6020830191508360208202830111156119dc57600080fd5b9250929050565b60008083601f8401126119f557600080fd5b8235905067ffffffffffffffff811115611a0e57600080fd5b602083019150836020820283011115611a2657600080fd5b9250929050565b600082601f830112611a3e57600080fd5b8135611a4e84826020860161191c565b91505092915050565b600081359050611a66816126bb565b92915050565b600060208284031215611a7e57600080fd5b6000611a8c8482850161195a565b91505092915050565b600060208284031215611aa757600080fd5b6000611ab58482850161196f565b91505092915050565b600060208284031215611ad057600080fd5b6000611ade84828501611984565b91505092915050565b60008060008060808587031215611afd57600080fd5b6000611b0b8782880161195a565b9450506020611b1c8782880161195a565b9350506040611b2d87828801611a57565b925050606085013567ffffffffffffffff811115611b4a57600080fd5b611b5687828801611a2d565b91505092959194509250565b600080600080600080600080600060a08a8c031215611b8057600080fd5b6000611b8e8c828d0161195a565b99505060208a013567ffffffffffffffff811115611bab57600080fd5b611bb78c828d01611999565b985098505060408a013567ffffffffffffffff811115611bd657600080fd5b611be28c828d016119e3565b965096505060608a013567ffffffffffffffff811115611c0157600080fd5b611c0d8c828d01611999565b945094505060808a013567ffffffffffffffff811115611c2c57600080fd5b611c388c828d016119e3565b92509250509295985092959850929598565b600060208284031215611c5c57600080fd5b6000611c6a84828501611a57565b91505092915050565b6000611c7f8383611c8b565b60208301905092915050565b611c94816122ab565b82525050565b611ca3816122ab565b82525050565b6000611cb583856121a6565b9350611cc082612157565b8060005b85811015611cf957611cd682846121ea565b611ce08882611c73565b9750611ceb8361218c565b925050600181019050611cc4565b5085925050509392505050565b6000611d1182612176565b611d1b81856121a6565b9350611d2683612161565b8060005b83811015611d5e57611d3b82612459565b611d458882611c73565b9750611d5083612199565b925050600181019050611d2a565b5085935050505092915050565b6000611d7783856121b7565b93507f07ffffffffffffffffffffffffffffffffffffffffffffffffffffffffffffff831115611da657600080fd5b602083029250611db7838584612325565b82840190509392505050565b611dcc816122cf565b82525050565b6000611ddd82612181565b611de781856121c8565b9350611df7818560208601612334565b611e008161246c565b840191505092915050565b6000611e186026836121d9565b9150611e238261248a565b604082019050919050565b6000611e3b6021836121d9565b9150611e46826124d9565b604082019050919050565b6000611e5e602a836121d9565b9150611e6982612528565b604082019050919050565b6000611e816033836121d9565b9150611e8c82612577565b604082019050919050565b6000611ea46020836121d9565b9150611eaf826125c6565b602082019050919050565b6000611ec76036836121d9565b9150611ed2826125ef565b604082019050919050565b6000611eea6027836121d9565b9150611ef58261263e565b604082019050919050565b611f098161231b565b82525050565b6000602082019050611f246000830184611c9a565b92915050565b6000608082019050611f3f6000830187611c9a565b611f4c6020830186611c9a565b611f596040830185611f00565b8181036060830152611f6b8184611dd2565b905095945050505050565b600060a0820190508181036000830152611f90818b611d06565b90508181036020830152611fa581898b611d6b565b90508181036040830152611fba818789611ca9565b90508181036060830152611fcf818587611d6b565b9050611fde6080830184611f00565b9998505050505050505050565b60006020820190506120006000830184611dc3565b92915050565b6000602082019050818103600083015261201f81611e0b565b9050919050565b6000602082019050818103600083015261203f81611e2e565b9050919050565b6000602082019050818103600083015261205f81611e51565b9050919050565b6000602082019050818103600083015261207f81611e74565b9050919050565b6000602082019050818103600083015261209f81611e97565b9050919050565b600060208201905081810360008301526120bf81611eba565b9050919050565b600060208201905081810360008301526120df81611edd565b9050919050565b60006020820190506120fb6000830184611f00565b92915050565b600061210b61211c565b90506121178282612381565b919050565b6000604051905090565b600067ffffffffffffffff8211156121415761214061242a565b5b61214a8261246c565b9050602081019050919050565b6000819050919050565b60008190508160005260206000209050919050565b600081549050919050565b600081519050919050565b6000602082019050919050565b6000600182019050919050565b600082825260208201905092915050565b600082825260208201905092915050565b600082825260208201905092915050565b600082825260208201905092915050565b60006121f9602084018461195a565b905092915050565b600061220c8261231b565b91506122178361231b565b9250827fffffffffffffffffffffffffffffffffffffffffffffffffffffffffffffffff0382111561224c5761224b6123fb565b5b828201905092915050565b60006122628261231b565b915061226d8361231b565b9250828210156122805761227f6123fb565b5b828203905092915050565b600073ffffffffffffffffffffffffffffffffffffffff82169050919050565b60006122b6826122fb565b9050919050565b60006122c8826122fb565b9050919050565b60007fffffffff0000000000000000000000000000000000000000000000000000000082169050919050565b600073ffffffffffffffffffffffffffffffffffffffff82169050919050565b6000819050919050565b82818337600083830152505050565b60005b83811015612352578082015181840152602081019050612337565b83811115612361576000848401525b50505050565b600061237a6123758361247d565b61228b565b9050919050565b61238a8261246c565b810181811067ffffffffffffffff821117156123a9576123a861242a565b5b80604052505050565b60006123bd8261231b565b91507fffffffffffffffffffffffffffffffffffffffffffffffffffffffffffffffff8214156123f0576123ef6123fb565b5b600182019050919050565b7f4e487b7100000000000000000000000000000000000000000000000000000000600052601160045260246000fd5b7f4e487b7100000000000000000000000000000000000000000000000000000000600052604160045260246000fd5b60006124658254612367565b9050919050565b6000601f19601f8301169050919050565b60008160001c9050919050565b7f4f776e61626c653a206e6577206f776e657220697320746865207a65726f206160008201527f6464726573730000000000000000000000000000000000000000000000000000602082015250565b7f5769736554726164653a207377617020616c726561647920696e69746961746560008201527f6400000000000000000000000000000000000000000000000000000000000000602082015250565b7f5769736554726164653a2063616c6c6572206973206e6f74207377617020706160008201527f72746963697061746f7200000000000000000000000000000000000000000000602082015250565b7f5769736554726164653a204e465420616e64204944206172726179732068617660008201527f6520746f2062652073616d65206c656e67746800000000000000000000000000602082015250565b7f4f776e61626c653a2063616c6c6572206973206e6f7420746865206f776e6572600082015250565b7f5769736554726164653a2043616e27742063616e63656c20737761702c206d7560008201527f73742062652073776170207061727469636970616e7400000000000000000000602082015250565b7f5769736554726164653a207472616e7366657220746f20746865207a65726f2060008201527f6164647265737300000000000000000000000000000000000000000000000000602082015250565b612696816122ab565b81146126a157600080fd5b50565b6126ad816122bd565b81146126b857600080fd5b50565b6126c48161231b565b81146126cf57600080fd5b5056fea2646970667358221220869b69f5d7b1a41afaadebe84bd8e727287f0e2f843c5839fe487ac4ed1ea6c164736f6c63430008040033",
  "linkReferences": {},
  "deployedLinkReferences": {}
}