{
  "_format": "hh-sol-artifact-1",
  "contractName": "WiseTradeV1",
  "sourceName": "contracts/WiseTradeV1.sol",
  "abi": [
    {
      "inputs": [
        {
          "internalType": "address",
          "name": "contractOwnerAddress",
          "type": "address"
        }
      ],
      "stateMutability": "nonpayable",
      "type": "constructor"
    },
    {
      "anonymous": false,
      "inputs": [
        {
          "indexed": true,
          "internalType": "address",
          "name": "previousOwner",
          "type": "address"
        },
        {
          "indexed": true,
          "internalType": "address",
          "name": "newOwner",
          "type": "address"
        }
      ],
      "name": "OwnershipTransferred",
      "type": "event"
    },
    {
      "anonymous": false,
      "inputs": [
        {
          "indexed": true,
          "internalType": "address",
          "name": "canceledBy",
          "type": "address"
        },
        {
          "indexed": true,
          "internalType": "uint256",
          "name": "swapId",
          "type": "uint256"
        }
      ],
      "name": "SwapCanceled",
      "type": "event"
    },
    {
      "anonymous": false,
      "inputs": [
        {
          "indexed": true,
          "internalType": "address",
          "name": "from",
          "type": "address"
        },
        {
          "indexed": true,
          "internalType": "address",
          "name": "to",
          "type": "address"
        },
        {
          "indexed": true,
          "internalType": "uint256",
          "name": "swapId",
          "type": "uint256"
        }
      ],
      "name": "SwapExecuted",
      "type": "event"
    },
    {
      "anonymous": false,
      "inputs": [
        {
          "indexed": true,
          "internalType": "address",
          "name": "from",
          "type": "address"
        },
        {
          "indexed": true,
          "internalType": "address",
          "name": "to",
          "type": "address"
        },
        {
          "indexed": true,
          "internalType": "uint256",
          "name": "swapId",
          "type": "uint256"
        },
        {
          "indexed": false,
          "internalType": "address[]",
          "name": "nftAddressInit",
          "type": "address[]"
        },
        {
          "indexed": false,
          "internalType": "uint256[]",
          "name": "nftIdsInit",
          "type": "uint256[]"
        },
        {
          "indexed": false,
          "internalType": "address[]",
          "name": "nftAddressescounter",
          "type": "address[]"
        },
        {
          "indexed": false,
          "internalType": "uint256[]",
          "name": "nftIdscounter",
          "type": "uint256[]"
        },
        {
          "indexed": false,
          "internalType": "uint256",
          "name": "etherValue",
          "type": "uint256"
        }
      ],
      "name": "SwapProposed",
      "type": "event"
    },
    {
      "inputs": [],
      "name": "ReadCounter",
      "outputs": [
        {
          "internalType": "uint256",
          "name": "",
          "type": "uint256"
        }
      ],
      "stateMutability": "view",
      "type": "function"
    },
    {
      "inputs": [
        {
          "internalType": "uint256",
          "name": "swapId",
          "type": "uint256"
        }
      ],
      "name": "acceptSwap",
      "outputs": [],
      "stateMutability": "payable",
      "type": "function"
    },
    {
      "inputs": [
        {
          "internalType": "uint256",
          "name": "swapId",
          "type": "uint256"
        }
      ],
      "name": "cancelSwap",
      "outputs": [],
      "stateMutability": "nonpayable",
      "type": "function"
    },
    {
      "inputs": [
        {
          "internalType": "address",
          "name": "operator",
          "type": "address"
        },
        {
          "internalType": "address",
          "name": "from",
          "type": "address"
        },
        {
          "internalType": "uint256",
          "name": "tokenId",
          "type": "uint256"
        },
        {
          "internalType": "bytes",
          "name": "data",
          "type": "bytes"
        }
      ],
      "name": "onERC721Received",
      "outputs": [
        {
          "internalType": "bytes4",
          "name": "",
          "type": "bytes4"
        }
      ],
      "stateMutability": "pure",
      "type": "function"
    },
    {
      "inputs": [],
      "name": "owner",
      "outputs": [
        {
          "internalType": "address",
          "name": "",
          "type": "address"
        }
      ],
      "stateMutability": "view",
      "type": "function"
    },
    {
      "inputs": [
        {
          "internalType": "address",
          "name": "counterpart",
          "type": "address"
        },
        {
          "internalType": "address[]",
          "name": "nftAddressesInit",
          "type": "address[]"
        },
        {
          "internalType": "uint256[]",
          "name": "nftIdsInit",
          "type": "uint256[]"
        },
        {
          "internalType": "address[]",
          "name": "nftAddressescounter",
          "type": "address[]"
        },
        {
          "internalType": "uint256[]",
          "name": "nftIdscounter",
          "type": "uint256[]"
        }
      ],
      "name": "proposeSwap",
      "outputs": [],
      "stateMutability": "payable",
      "type": "function"
    },
    {
      "inputs": [],
      "name": "renounceOwnership",
      "outputs": [],
      "stateMutability": "nonpayable",
      "type": "function"
    },
    {
      "inputs": [
        {
          "internalType": "address",
          "name": "newOwner",
          "type": "address"
        }
      ],
      "name": "transferOwnership",
      "outputs": [],
      "stateMutability": "nonpayable",
      "type": "function"
    },
    {
      "inputs": [
        {
          "internalType": "address payable",
          "name": "recipient",
          "type": "address"
        }
      ],
      "name": "withdrawEther",
      "outputs": [],
      "stateMutability": "nonpayable",
      "type": "function"
    }
  ],
  "bytecode": "0x60806040523480156200001157600080fd5b5060405162002b8338038062002b83833981810160405281019062000037919062000296565b620000576200004b6200007460201b60201c565b6200007c60201b60201c565b6200006d816200014060201b620015121760201c565b506200042b565b600033905090565b60008060009054906101000a900473ffffffffffffffffffffffffffffffffffffffff169050816000806101000a81548173ffffffffffffffffffffffffffffffffffffffff021916908373ffffffffffffffffffffffffffffffffffffffff1602179055508173ffffffffffffffffffffffffffffffffffffffff168173ffffffffffffffffffffffffffffffffffffffff167f8be0079c531659141344cd1fd0a4f28419497f9722a3daafe3b4186f6b6457e060405160405180910390a35050565b620001506200007460201b60201c565b73ffffffffffffffffffffffffffffffffffffffff16620001766200025660201b60201c565b73ffffffffffffffffffffffffffffffffffffffff1614620001cf576040517f08c379a0000000000000000000000000000000000000000000000000000000008152600401620001c69062000332565b60405180910390fd5b600073ffffffffffffffffffffffffffffffffffffffff168173ffffffffffffffffffffffffffffffffffffffff16141562000242576040517f08c379a0000000000000000000000000000000000000000000000000000000008152600401620002399062000310565b60405180910390fd5b62000253816200007c60201b60201c565b50565b60008060009054906101000a900473ffffffffffffffffffffffffffffffffffffffff16905090565b600081519050620002908162000411565b92915050565b600060208284031215620002a957600080fd5b6000620002b9848285016200027f565b91505092915050565b6000620002d160268362000354565b9150620002de8262000399565b604082019050919050565b6000620002f860208362000354565b91506200030582620003e8565b602082019050919050565b600060208201905081810360008301526200032b81620002c2565b9050919050565b600060208201905081810360008301526200034d81620002e9565b9050919050565b600082825260208201905092915050565b6000620003728262000379565b9050919050565b600073ffffffffffffffffffffffffffffffffffffffff82169050919050565b7f4f776e61626c653a206e6577206f776e657220697320746865207a65726f206160008201527f6464726573730000000000000000000000000000000000000000000000000000602082015250565b7f4f776e61626c653a2063616c6c6572206973206e6f7420746865206f776e6572600082015250565b6200041c8162000365565b81146200042857600080fd5b50565b612748806200043b6000396000f3fe6080604052600436106100865760003560e01c80638896474c116100595780638896474c146101245780638da5cb5b1461014f578063af933b571461017a578063cc70f2e0146101a3578063f2fde38b146101bf57610086565b8063150b7a021461008b5780631bf33004146100c857806354d6a2b7146100e4578063715018a61461010d575b600080fd5b34801561009757600080fd5b506100b260048036038101906100ad9190611b27565b6101e8565b6040516100bf919061202b565b60405180910390f35b6100e260048036038101906100dd9190611c8a565b610215565b005b3480156100f057600080fd5b5061010b60048036038101906101069190611c8a565b6109ea565b005b34801561011957600080fd5b50610122610f3b565b005b34801561013057600080fd5b50610139610fc3565b6040516101469190612126565b60405180910390f35b34801561015b57600080fd5b50610164610fcd565b6040516101719190611f4f565b60405180910390f35b34801561018657600080fd5b506101a1600480360381019061019c9190611afe565b610ff6565b005b6101bd60048036038101906101b89190611ba2565b611139565b005b3480156101cb57600080fd5b506101e660048036038101906101e19190611aac565b611512565b005b60007f150b7a023d4804d13e8c85fb27262cb750cf6ba9f9dd3bb30d90f482ceeb4b1f9050949350505050565b3373ffffffffffffffffffffffffffffffffffffffff166003600083815260200190815260200160002060040160009054906101000a900473ffffffffffffffffffffffffffffffffffffffff1673ffffffffffffffffffffffffffffffffffffffff16146102b9576040517f08c379a00000000000000000000000000000000000000000000000000000000081526004016102b090612086565b60405180910390fd5b6000600360008381526020019081526020016000206007015414610312576040517f08c379a000000000000000000000000000000000000000000000000000000000815260040161030990612066565b60405180910390fd5b6000600360008381526020019081526020016000206005018054806020026020016040519081016040528092919081815260200182805480156103aa57602002820191906000526020600020905b8160009054906101000a900473ffffffffffffffffffffffffffffffffffffffff1673ffffffffffffffffffffffffffffffffffffffff1681526020019060010190808311610360575b5050505050905060006003600084815260200190815260200160002060060180548060200260200160405190810160405280929190818152602001828054801561041357602002820191906000526020600020905b8154815260200190600101908083116103ff575b505050505090506000805b8351811015610586573373ffffffffffffffffffffffffffffffffffffffff16848281518110610477577f4e487b7100000000000000000000000000000000000000000000000000000000600052603260045260246000fd5b602002602001015173ffffffffffffffffffffffffffffffffffffffff16636352211e8584815181106104d3577f4e487b7100000000000000000000000000000000000000000000000000000000600052603260045260246000fd5b60200260200101516040518263ffffffff1660e01b81526004016104f79190612126565b60206040518083038186803b15801561050f57600080fd5b505afa158015610523573d6000803e3d6000fd5b505050506040513d601f19601f820116820180604052508101906105479190611ad5565b73ffffffffffffffffffffffffffffffffffffffff161415610573576001826105709190612241565b91505b808061057e906123f2565b91505061041e565b5082518114156109da576106d0336003600087815260200190815260200160002060000160009054906101000a900473ffffffffffffffffffffffffffffffffffffffff166003600088815260200190815260200160002060050180548060200260200160405190810160405280929190818152602001828054801561066157602002820191906000526020600020905b8160009054906101000a900473ffffffffffffffffffffffffffffffffffffffff1673ffffffffffffffffffffffffffffffffffffffff1681526020019060010190808311610617575b5050505050600360008981526020019081526020016000206006018054806020026020016040519081016040528092919081815260200182805480156106c657602002820191906000526020600020905b8154815260200190600101908083116106b2575b505050505061160a565b3460036000868152602001908152602001600020600701819055506003600085815260200190815260200160002060070154600260008282546107139190612241565b9250508190555061085a306003600087815260200190815260200160002060040160009054906101000a900473ffffffffffffffffffffffffffffffffffffffff16600360008881526020019081526020016000206001018054806020026020016040519081016040528092919081815260200182805480156107eb57602002820191906000526020600020905b8160009054906101000a900473ffffffffffffffffffffffffffffffffffffffff1673ffffffffffffffffffffffffffffffffffffffff16815260200190600101908083116107a1575b50505050506003600089815260200190815260200160002060020180548060200260200160405190810160405280929190818152602001828054801561085057602002820191906000526020600020905b81548152602001906001019080831161083c575b505050505061160a565b836003600086815260200190815260200160002060040160009054906101000a900473ffffffffffffffffffffffffffffffffffffffff1673ffffffffffffffffffffffffffffffffffffffff166003600087815260200190815260200160002060000160009054906101000a900473ffffffffffffffffffffffffffffffffffffffff1673ffffffffffffffffffffffffffffffffffffffff167fbad29f2bbbf6bb1e15563203bcdb0dd660c54eab078763eb66f797efa8f5e8c160405160405180910390a460036000858152602001908152602001600020600080820160006101000a81549073ffffffffffffffffffffffffffffffffffffffff021916905560018201600061096c9190611810565b60028201600061097c9190611831565b60038201600090556004820160006101000a81549073ffffffffffffffffffffffffffffffffffffffff02191690556005820160006109bb9190611810565b6006820160006109cb9190611831565b600782016000905550506109e4565b6109e3846109ea565b5b50505050565b3373ffffffffffffffffffffffffffffffffffffffff166003600083815260200190815260200160002060000160009054906101000a900473ffffffffffffffffffffffffffffffffffffffff1673ffffffffffffffffffffffffffffffffffffffff161480610abb57503373ffffffffffffffffffffffffffffffffffffffff166003600083815260200190815260200160002060040160009054906101000a900473ffffffffffffffffffffffffffffffffffffffff1673ffffffffffffffffffffffffffffffffffffffff16145b610afa576040517f08c379a0000000000000000000000000000000000000000000000000000000008152600401610af1906120e6565b60405180910390fd5b610c3a306003600084815260200190815260200160002060000160009054906101000a900473ffffffffffffffffffffffffffffffffffffffff1660036000858152602001908152602001600020600101805480602002602001604051908101604052809291908181526020018280548015610bcb57602002820191906000526020600020905b8160009054906101000a900473ffffffffffffffffffffffffffffffffffffffff1673ffffffffffffffffffffffffffffffffffffffff1681526020019060010190808311610b81575b505050505060036000868152602001908152602001600020600201805480602002602001604051908101604052809291908181526020018280548015610c3057602002820191906000526020600020905b815481526020019060010190808311610c1c575b505050505061160a565b6000600360008381526020019081526020016000206003015414610d3d57600360008281526020019081526020016000206003015460026000828254610c809190612297565b92505081905550600060036000838152602001908152602001600020600301549050600060036000848152602001908152602001600020600301819055506003600083815260200190815260200160002060000160009054906101000a900473ffffffffffffffffffffffffffffffffffffffff1673ffffffffffffffffffffffffffffffffffffffff166108fc829081150290604051600060405180830381858888f19350505050158015610d3a573d6000803e3d6000fd5b50505b6000600360008381526020019081526020016000206007015414610e4057600360008281526020019081526020016000206007015460026000828254610d839190612297565b92505081905550600060036000838152602001908152602001600020600701549050600060036000848152602001908152602001600020600701819055506003600083815260200190815260200160002060040160009054906101000a900473ffffffffffffffffffffffffffffffffffffffff1673ffffffffffffffffffffffffffffffffffffffff166108fc829081150290604051600060405180830381858888f19350505050158015610e3d573d6000803e3d6000fd5b50505b803373ffffffffffffffffffffffffffffffffffffffff167fa715d65b6e7107257e3f1469a8b36f0003c039bf6cc6279c26d814b77efb658060405160405180910390a360036000828152602001908152602001600020600080820160006101000a81549073ffffffffffffffffffffffffffffffffffffffff0219169055600182016000610ecf9190611810565b600282016000610edf9190611831565b60038201600090556004820160006101000a81549073ffffffffffffffffffffffffffffffffffffffff0219169055600582016000610f1e9190611810565b600682016000610f2e9190611831565b6007820160009055505050565b610f436116cc565b73ffffffffffffffffffffffffffffffffffffffff16610f61610fcd565b73ffffffffffffffffffffffffffffffffffffffff1614610fb7576040517f08c379a0000000000000000000000000000000000000000000000000000000008152600401610fae906120c6565b60405180910390fd5b610fc160006116d4565b565b6000600154905090565b60008060009054906101000a900473ffffffffffffffffffffffffffffffffffffffff16905090565b610ffe6116cc565b73ffffffffffffffffffffffffffffffffffffffff1661101c610fcd565b73ffffffffffffffffffffffffffffffffffffffff1614611072576040517f08c379a0000000000000000000000000000000000000000000000000000000008152600401611069906120c6565b60405180910390fd5b600073ffffffffffffffffffffffffffffffffffffffff168173ffffffffffffffffffffffffffffffffffffffff1614156110e2576040517f08c379a00000000000000000000000000000000000000000000000000000000081526004016110d990612106565b60405180910390fd5b8073ffffffffffffffffffffffffffffffffffffffff166108fc6002544761110a9190612297565b9081150290604051600060405180830381858888f19350505050158015611135573d6000803e3d6000fd5b5050565b878780806020026020016040519081016040528093929190818152602001838360200280828437600081840152601f19601f82011690508083019250505050505050868680806020026020016040519081016040528093929190818152602001838360200280828437600081840152601f19601f820116905080830192505050505050508051825114611201576040517f08c379a00000000000000000000000000000000000000000000000000000000081526004016111f8906120a6565b60405180910390fd5b858580806020026020016040519081016040528093929190818152602001838360200280828437600081840152601f19601f82011690508083019250505050505050848480806020026020016040519081016040528093929190818152602001838360200280828437600081840152601f19601f8201169050808301925050505050505080518251146112c9576040517f08c379a00000000000000000000000000000000000000000000000000000000081526004016112c0906120a6565b60405180910390fd5b60018060008282546112db9190612241565b9250508190555061137033308e8e80806020026020016040519081016040528093929190818152602001838360200280828437600081840152601f19601f820116905080830192505050505050508d8d80806020026020016040519081016040528093929190818152602001838360200280828437600081840152601f19601f8201169050808301925050505050505061160a565b60006003600060015481526020019081526020016000209050338160000160006101000a81548173ffffffffffffffffffffffffffffffffffffffff021916908373ffffffffffffffffffffffffffffffffffffffff1602179055508c8c8260010191906113df929190611852565b508a8a8260020191906113f39291906118f2565b508888826005019190611407929190611852565b50868682600601919061141b9291906118f2565b5034816003018190555080600301546002600082825461143b9190612241565b925050819055508d8160040160006101000a81548173ffffffffffffffffffffffffffffffffffffffff021916908373ffffffffffffffffffffffffffffffffffffffff1602179055506001548e73ffffffffffffffffffffffffffffffffffffffff163373ffffffffffffffffffffffffffffffffffffffff167f98a3e5937d32b0f142498fa84d7a454f36bda700ae5145c27b192309a4f5f463846001018f8f8f8f8f8f8b600301546040516114fa989796959493929190611fb6565b60405180910390a45050505050505050505050505050565b61151a6116cc565b73ffffffffffffffffffffffffffffffffffffffff16611538610fcd565b73ffffffffffffffffffffffffffffffffffffffff161461158e576040517f08c379a0000000000000000000000000000000000000000000000000000000008152600401611585906120c6565b60405180910390fd5b600073ffffffffffffffffffffffffffffffffffffffff168173ffffffffffffffffffffffffffffffffffffffff1614156115fe576040517f08c379a00000000000000000000000000000000000000000000000000000000081526004016115f590612046565b60405180910390fd5b611607816116d4565b50565b60005b81518110156116c5576116b28585858481518110611654577f4e487b7100000000000000000000000000000000000000000000000000000000600052603260045260246000fd5b6020026020010151858581518110611695577f4e487b7100000000000000000000000000000000000000000000000000000000600052603260045260246000fd5b602002602001015160405180602001604052806000815250611798565b80806116bd906123f2565b91505061160d565b5050505050565b600033905090565b60008060009054906101000a900473ffffffffffffffffffffffffffffffffffffffff169050816000806101000a81548173ffffffffffffffffffffffffffffffffffffffff021916908373ffffffffffffffffffffffffffffffffffffffff1602179055508173ffffffffffffffffffffffffffffffffffffffff168173ffffffffffffffffffffffffffffffffffffffff167f8be0079c531659141344cd1fd0a4f28419497f9722a3daafe3b4186f6b6457e060405160405180910390a35050565b8273ffffffffffffffffffffffffffffffffffffffff1663b88d4fde868685856040518563ffffffff1660e01b81526004016117d79493929190611f6a565b600060405180830381600087803b1580156117f157600080fd5b505af1158015611805573d6000803e3d6000fd5b505050505050505050565b508054600082559060005260206000209081019061182e919061193f565b50565b508054600082559060005260206000209081019061184f919061193f565b50565b8280548282559060005260206000209081019282156118e1579160200282015b828111156118e057823573ffffffffffffffffffffffffffffffffffffffff168260006101000a81548173ffffffffffffffffffffffffffffffffffffffff021916908373ffffffffffffffffffffffffffffffffffffffff16021790555091602001919060010190611872565b5b5090506118ee919061193f565b5090565b82805482825590600052602060002090810192821561192e579160200282015b8281111561192d578235825591602001919060010190611912565b5b50905061193b919061193f565b5090565b5b80821115611958576000816000905550600101611940565b5090565b600061196f61196a84612166565b612141565b90508281526020810184848401111561198757600080fd5b611992848285612365565b509392505050565b6000813590506119a9816126cd565b92915050565b6000815190506119be816126cd565b92915050565b6000813590506119d3816126e4565b92915050565b60008083601f8401126119eb57600080fd5b8235905067ffffffffffffffff811115611a0457600080fd5b602083019150836020820283011115611a1c57600080fd5b9250929050565b60008083601f840112611a3557600080fd5b8235905067ffffffffffffffff811115611a4e57600080fd5b602083019150836020820283011115611a6657600080fd5b9250929050565b600082601f830112611a7e57600080fd5b8135611a8e84826020860161195c565b91505092915050565b600081359050611aa6816126fb565b92915050565b600060208284031215611abe57600080fd5b6000611acc8482850161199a565b91505092915050565b600060208284031215611ae757600080fd5b6000611af5848285016119af565b91505092915050565b600060208284031215611b1057600080fd5b6000611b1e848285016119c4565b91505092915050565b60008060008060808587031215611b3d57600080fd5b6000611b4b8782880161199a565b9450506020611b5c8782880161199a565b9350506040611b6d87828801611a97565b925050606085013567ffffffffffffffff811115611b8a57600080fd5b611b9687828801611a6d565b91505092959194509250565b600080600080600080600080600060a08a8c031215611bc057600080fd5b6000611bce8c828d0161199a565b99505060208a013567ffffffffffffffff811115611beb57600080fd5b611bf78c828d016119d9565b985098505060408a013567ffffffffffffffff811115611c1657600080fd5b611c228c828d01611a23565b965096505060608a013567ffffffffffffffff811115611c4157600080fd5b611c4d8c828d016119d9565b945094505060808a013567ffffffffffffffff811115611c6c57600080fd5b611c788c828d01611a23565b92509250509295985092959850929598565b600060208284031215611c9c57600080fd5b6000611caa84828501611a97565b91505092915050565b6000611cbf8383611ccb565b60208301905092915050565b611cd4816122eb565b82525050565b611ce3816122eb565b82525050565b6000611cf583856121e6565b9350611d0082612197565b8060005b85811015611d3957611d16828461222a565b611d208882611cb3565b9750611d2b836121cc565b925050600181019050611d04565b5085925050509392505050565b6000611d51826121b6565b611d5b81856121e6565b9350611d66836121a1565b8060005b83811015611d9e57611d7b82612499565b611d858882611cb3565b9750611d90836121d9565b925050600181019050611d6a565b5085935050505092915050565b6000611db783856121f7565b93507f07ffffffffffffffffffffffffffffffffffffffffffffffffffffffffffffff831115611de657600080fd5b602083029250611df7838584612365565b82840190509392505050565b611e0c8161230f565b82525050565b6000611e1d826121c1565b611e278185612208565b9350611e37818560208601612374565b611e40816124ac565b840191505092915050565b6000611e58602683612219565b9150611e63826124ca565b604082019050919050565b6000611e7b602183612219565b9150611e8682612519565b604082019050919050565b6000611e9e602a83612219565b9150611ea982612568565b604082019050919050565b6000611ec1603383612219565b9150611ecc826125b7565b604082019050919050565b6000611ee4602083612219565b9150611eef82612606565b602082019050919050565b6000611f07603683612219565b9150611f128261262f565b604082019050919050565b6000611f2a602783612219565b9150611f358261267e565b604082019050919050565b611f498161235b565b82525050565b6000602082019050611f646000830184611cda565b92915050565b6000608082019050611f7f6000830187611cda565b611f8c6020830186611cda565b611f996040830185611f40565b8181036060830152611fab8184611e12565b905095945050505050565b600060a0820190508181036000830152611fd0818b611d46565b90508181036020830152611fe581898b611dab565b90508181036040830152611ffa818789611ce9565b9050818103606083015261200f818587611dab565b905061201e6080830184611f40565b9998505050505050505050565b60006020820190506120406000830184611e03565b92915050565b6000602082019050818103600083015261205f81611e4b565b9050919050565b6000602082019050818103600083015261207f81611e6e565b9050919050565b6000602082019050818103600083015261209f81611e91565b9050919050565b600060208201905081810360008301526120bf81611eb4565b9050919050565b600060208201905081810360008301526120df81611ed7565b9050919050565b600060208201905081810360008301526120ff81611efa565b9050919050565b6000602082019050818103600083015261211f81611f1d565b9050919050565b600060208201905061213b6000830184611f40565b92915050565b600061214b61215c565b905061215782826123c1565b919050565b6000604051905090565b600067ffffffffffffffff8211156121815761218061246a565b5b61218a826124ac565b9050602081019050919050565b6000819050919050565b60008190508160005260206000209050919050565b600081549050919050565b600081519050919050565b6000602082019050919050565b6000600182019050919050565b600082825260208201905092915050565b600082825260208201905092915050565b600082825260208201905092915050565b600082825260208201905092915050565b6000612239602084018461199a565b905092915050565b600061224c8261235b565b91506122578361235b565b9250827fffffffffffffffffffffffffffffffffffffffffffffffffffffffffffffffff0382111561228c5761228b61243b565b5b828201905092915050565b60006122a28261235b565b91506122ad8361235b565b9250828210156122c0576122bf61243b565b5b828203905092915050565b600073ffffffffffffffffffffffffffffffffffffffff82169050919050565b60006122f68261233b565b9050919050565b60006123088261233b565b9050919050565b60007fffffffff0000000000000000000000000000000000000000000000000000000082169050919050565b600073ffffffffffffffffffffffffffffffffffffffff82169050919050565b6000819050919050565b82818337600083830152505050565b60005b83811015612392578082015181840152602081019050612377565b838111156123a1576000848401525b50505050565b60006123ba6123b5836124bd565b6122cb565b9050919050565b6123ca826124ac565b810181811067ffffffffffffffff821117156123e9576123e861246a565b5b80604052505050565b60006123fd8261235b565b91507fffffffffffffffffffffffffffffffffffffffffffffffffffffffffffffffff8214156124305761242f61243b565b5b600182019050919050565b7f4e487b7100000000000000000000000000000000000000000000000000000000600052601160045260246000fd5b7f4e487b7100000000000000000000000000000000000000000000000000000000600052604160045260246000fd5b60006124a582546123a7565b9050919050565b6000601f19601f8301169050919050565b60008160001c9050919050565b7f4f776e61626c653a206e6577206f776e657220697320746865207a65726f206160008201527f6464726573730000000000000000000000000000000000000000000000000000602082015250565b7f5769736554726164653a207377617020616c726561647920696e69746961746560008201527f6400000000000000000000000000000000000000000000000000000000000000602082015250565b7f5769736554726164653a2063616c6c6572206973206e6f74207377617020706160008201527f72746963697061746f7200000000000000000000000000000000000000000000602082015250565b7f5769736554726164653a204e465420616e64204944206172726179732068617660008201527f6520746f2062652073616d65206c656e67746800000000000000000000000000602082015250565b7f4f776e61626c653a2063616c6c6572206973206e6f7420746865206f776e6572600082015250565b7f5769736554726164653a2043616e27742063616e63656c20737761702c206d7560008201527f73742062652073776170207061727469636970616e7400000000000000000000602082015250565b7f5769736554726164653a207472616e7366657220746f20746865207a65726f2060008201527f6164647265737300000000000000000000000000000000000000000000000000602082015250565b6126d6816122eb565b81146126e157600080fd5b50565b6126ed816122fd565b81146126f857600080fd5b50565b6127048161235b565b811461270f57600080fd5b5056fea2646970667358221220f380d12e40b576c26b3b5d6e0a4b89cf73cf32ab570a865f8d6473bd404d377664736f6c63430008040033",
  "linkReferences": {},
  "deployedLinkReferences": {}
}