{
  "_format": "hh-sol-artifact-1",
  "contractName": "WiseTradeV1",
  "sourceName": "contracts/WiseTradeV1.sol",
  "abi": [
    {
      "inputs": [
        {
          "internalType": "address payable",
          "name": "contractOwnerAddress",
          "type": "address"
        }
      ],
      "stateMutability": "nonpayable",
      "type": "constructor"
    },
    {
      "anonymous": false,
      "inputs": [
        {
          "indexed": true,
          "internalType": "address",
          "name": "previousOwner",
          "type": "address"
        },
        {
          "indexed": true,
          "internalType": "address",
          "name": "newOwner",
          "type": "address"
        }
      ],
      "name": "OwnershipTransferred",
      "type": "event"
    },
    {
      "anonymous": false,
      "inputs": [
        {
          "indexed": true,
          "internalType": "address",
          "name": "from",
          "type": "address"
        },
        {
          "indexed": true,
          "internalType": "uint256",
          "name": "amount",
          "type": "uint256"
        },
        {
          "indexed": true,
          "internalType": "uint256",
          "name": "swapId",
          "type": "uint256"
        }
      ],
      "name": "PaidFee",
      "type": "event"
    },
    {
      "anonymous": false,
      "inputs": [
        {
          "indexed": true,
          "internalType": "address",
          "name": "canceledBy",
          "type": "address"
        },
        {
          "indexed": true,
          "internalType": "uint256",
          "name": "swapId",
          "type": "uint256"
        }
      ],
      "name": "SwapCanceled",
      "type": "event"
    },
    {
      "anonymous": false,
      "inputs": [
        {
          "indexed": true,
          "internalType": "address",
          "name": "from",
          "type": "address"
        },
        {
          "indexed": true,
          "internalType": "address",
          "name": "to",
          "type": "address"
        },
        {
          "indexed": true,
          "internalType": "uint256",
          "name": "swapId",
          "type": "uint256"
        }
      ],
      "name": "SwapExecuted",
      "type": "event"
    },
    {
      "anonymous": false,
      "inputs": [
        {
          "indexed": true,
          "internalType": "address",
          "name": "from",
          "type": "address"
        },
        {
          "indexed": true,
          "internalType": "address",
          "name": "to",
          "type": "address"
        },
        {
          "indexed": true,
          "internalType": "uint256",
          "name": "swapId",
          "type": "uint256"
        },
        {
          "indexed": false,
          "internalType": "address[]",
          "name": "nftAddressInit",
          "type": "address[]"
        },
        {
          "indexed": false,
          "internalType": "uint256[]",
          "name": "nftIdsInit",
          "type": "uint256[]"
        },
        {
          "indexed": false,
          "internalType": "address[]",
          "name": "nftAddressescounter",
          "type": "address[]"
        },
        {
          "indexed": false,
          "internalType": "uint256[]",
          "name": "nftIdscounter",
          "type": "uint256[]"
        },
        {
          "indexed": false,
          "internalType": "uint256",
          "name": "etherValue",
          "type": "uint256"
        }
      ],
      "name": "SwapProposed",
      "type": "event"
    },
    {
      "anonymous": false,
      "inputs": [
        {
          "indexed": true,
          "internalType": "address",
          "name": "recipient",
          "type": "address"
        },
        {
          "indexed": true,
          "internalType": "uint256",
          "name": "amount",
          "type": "uint256"
        }
      ],
      "name": "WithdrawEtherSuccess",
      "type": "event"
    },
    {
      "stateMutability": "payable",
      "type": "fallback"
    },
    {
      "inputs": [],
      "name": "ReadCounter",
      "outputs": [
        {
          "internalType": "uint256",
          "name": "",
          "type": "uint256"
        }
      ],
      "stateMutability": "view",
      "type": "function"
    },
    {
      "inputs": [
        {
          "internalType": "uint256",
          "name": "swapId",
          "type": "uint256"
        },
        {
          "internalType": "uint256",
          "name": "fee",
          "type": "uint256"
        }
      ],
      "name": "acceptSwap",
      "outputs": [],
      "stateMutability": "payable",
      "type": "function"
    },
    {
      "inputs": [
        {
          "internalType": "uint256",
          "name": "swapId",
          "type": "uint256"
        }
      ],
      "name": "cancelSwap",
      "outputs": [],
      "stateMutability": "nonpayable",
      "type": "function"
    },
    {
      "inputs": [
        {
          "internalType": "uint256",
          "name": "i",
          "type": "uint256"
        }
      ],
      "name": "getSwap",
      "outputs": [
        {
          "components": [
            {
              "internalType": "address payable",
              "name": "initiator",
              "type": "address"
            },
            {
              "internalType": "address[]",
              "name": "initiatorNftAddresses",
              "type": "address[]"
            },
            {
              "internalType": "uint256[]",
              "name": "initiatorNftIds",
              "type": "uint256[]"
            },
            {
              "internalType": "uint256",
              "name": "initiatorEtherValue",
              "type": "uint256"
            },
            {
              "internalType": "address payable",
              "name": "counterpart",
              "type": "address"
            },
            {
              "internalType": "address[]",
              "name": "counterpartNftAddresses",
              "type": "address[]"
            },
            {
              "internalType": "uint256[]",
              "name": "counterpartNftIds",
              "type": "uint256[]"
            },
            {
              "internalType": "uint256",
              "name": "counterpartEtherValue",
              "type": "uint256"
            }
          ],
          "internalType": "struct WiseTradeV1.Swap",
          "name": "",
          "type": "tuple"
        }
      ],
      "stateMutability": "view",
      "type": "function"
    },
    {
      "inputs": [],
      "name": "getWiseTradeBalance",
      "outputs": [
        {
          "internalType": "uint256",
          "name": "",
          "type": "uint256"
        }
      ],
      "stateMutability": "view",
      "type": "function"
    },
    {
      "inputs": [
        {
          "internalType": "address",
          "name": "operator",
          "type": "address"
        },
        {
          "internalType": "address",
          "name": "from",
          "type": "address"
        },
        {
          "internalType": "uint256",
          "name": "tokenId",
          "type": "uint256"
        },
        {
          "internalType": "bytes",
          "name": "data",
          "type": "bytes"
        }
      ],
      "name": "onERC721Received",
      "outputs": [
        {
          "internalType": "bytes4",
          "name": "",
          "type": "bytes4"
        }
      ],
      "stateMutability": "pure",
      "type": "function"
    },
    {
      "inputs": [],
      "name": "owner",
      "outputs": [
        {
          "internalType": "address",
          "name": "",
          "type": "address"
        }
      ],
      "stateMutability": "view",
      "type": "function"
    },
    {
      "inputs": [
        {
          "components": [
            {
              "internalType": "address payable",
              "name": "initiator",
              "type": "address"
            },
            {
              "internalType": "address[]",
              "name": "initiatorNftAddresses",
              "type": "address[]"
            },
            {
              "internalType": "uint256[]",
              "name": "initiatorNftIds",
              "type": "uint256[]"
            },
            {
              "internalType": "uint256",
              "name": "initiatorEtherValue",
              "type": "uint256"
            },
            {
              "internalType": "address payable",
              "name": "counterpart",
              "type": "address"
            },
            {
              "internalType": "address[]",
              "name": "counterpartNftAddresses",
              "type": "address[]"
            },
            {
              "internalType": "uint256[]",
              "name": "counterpartNftIds",
              "type": "uint256[]"
            },
            {
              "internalType": "uint256",
              "name": "counterpartEtherValue",
              "type": "uint256"
            }
          ],
          "internalType": "struct WiseTradeV1.Swap",
          "name": "swap",
          "type": "tuple"
        },
        {
          "internalType": "uint256",
          "name": "fee",
          "type": "uint256"
        }
      ],
      "name": "proposeSwap",
      "outputs": [],
      "stateMutability": "payable",
      "type": "function"
    },
    {
      "inputs": [],
      "name": "renounceOwnership",
      "outputs": [],
      "stateMutability": "nonpayable",
      "type": "function"
    },
    {
      "inputs": [
        {
          "internalType": "address",
          "name": "newOwner",
          "type": "address"
        }
      ],
      "name": "transferOwnership",
      "outputs": [],
      "stateMutability": "nonpayable",
      "type": "function"
    },
    {
      "inputs": [
        {
          "internalType": "address payable",
          "name": "recipient",
          "type": "address"
        },
        {
          "internalType": "uint256",
          "name": "amount",
          "type": "uint256"
        }
      ],
      "name": "withdrawEther",
      "outputs": [],
      "stateMutability": "nonpayable",
      "type": "function"
    },
    {
      "stateMutability": "payable",
      "type": "receive"
    }
  ],
  "bytecode": "0x60806040523480156200001157600080fd5b506040516200326938038062003269833981810160405281019062000037919062000296565b620000576200004b6200007460201b60201c565b6200007c60201b60201c565b6200006d816200014060201b6200181f1760201c565b506200042b565b600033905090565b60008060009054906101000a900473ffffffffffffffffffffffffffffffffffffffff169050816000806101000a81548173ffffffffffffffffffffffffffffffffffffffff021916908373ffffffffffffffffffffffffffffffffffffffff1602179055508173ffffffffffffffffffffffffffffffffffffffff168173ffffffffffffffffffffffffffffffffffffffff167f8be0079c531659141344cd1fd0a4f28419497f9722a3daafe3b4186f6b6457e060405160405180910390a35050565b620001506200007460201b60201c565b73ffffffffffffffffffffffffffffffffffffffff16620001766200025660201b60201c565b73ffffffffffffffffffffffffffffffffffffffff1614620001cf576040517f08c379a0000000000000000000000000000000000000000000000000000000008152600401620001c69062000332565b60405180910390fd5b600073ffffffffffffffffffffffffffffffffffffffff168173ffffffffffffffffffffffffffffffffffffffff16141562000242576040517f08c379a0000000000000000000000000000000000000000000000000000000008152600401620002399062000310565b60405180910390fd5b62000253816200007c60201b60201c565b50565b60008060009054906101000a900473ffffffffffffffffffffffffffffffffffffffff16905090565b600081519050620002908162000411565b92915050565b600060208284031215620002a957600080fd5b6000620002b9848285016200027f565b91505092915050565b6000620002d160268362000354565b9150620002de8262000399565b604082019050919050565b6000620002f860208362000354565b91506200030582620003e8565b602082019050919050565b600060208201905081810360008301526200032b81620002c2565b9050919050565b600060208201905081810360008301526200034d81620002e9565b9050919050565b600082825260208201905092915050565b6000620003728262000379565b9050919050565b600073ffffffffffffffffffffffffffffffffffffffff82169050919050565b7f4f776e61626c653a206e6577206f776e657220697320746865207a65726f206160008201527f6464726573730000000000000000000000000000000000000000000000000000602082015250565b7f4f776e61626c653a2063616c6c6572206973206e6f7420746865206f776e6572600082015250565b6200041c8162000365565b81146200042857600080fd5b50565b612e2e806200043b6000396000f3fe6080604052600436106100a05760003560e01c80636e0a2d26116100645780636e0a2d2614610191578063715018a6146101ad5780638896474c146101c45780638da5cb5b146101ef578063ce251db61461021a578063f2fde38b14610245576100a7565b8063150b7a02146100a95780631cfa8295146100e65780634a0d89ba14610102578063522f68151461013f57806354d6a2b714610168576100a7565b366100a757005b005b3480156100b557600080fd5b506100d060048036038101906100cb9190612060565b61026e565b6040516100dd91906125d5565b60405180910390f35b61010060048036038101906100fb9190612158565b61029b565b005b34801561010e57600080fd5b506101296004803603810190610124919061212f565b610ad6565b6040516101369190612730565b60405180910390f35b34801561014b57600080fd5b5061016660048036038101906101619190612024565b610d90565b005b34801561017457600080fd5b5061018f600480360381019061018a919061212f565b610f71565b005b6101ab60048036038101906101a691906120db565b611464565b005b3480156101b957600080fd5b506101c261175c565b005b3480156101d057600080fd5b506101d96117e4565b6040516101e69190612752565b60405180910390f35b3480156101fb57600080fd5b506102046117ee565b604051610211919061256e565b60405180910390f35b34801561022657600080fd5b5061022f611817565b60405161023c9190612752565b60405180910390f35b34801561025157600080fd5b5061026c60048036038101906102679190611fd2565b61181f565b005b60007f150b7a023d4804d13e8c85fb27262cb750cf6ba9f9dd3bb30d90f482ceeb4b1f9050949350505050565b80803410156102df576040517f08c379a00000000000000000000000000000000000000000000000000000000081526004016102d690612690565b60405180910390fd5b3373ffffffffffffffffffffffffffffffffffffffff166003600085815260200190815260200160002060040160009054906101000a900473ffffffffffffffffffffffffffffffffffffffff1673ffffffffffffffffffffffffffffffffffffffff1614610383576040517f08c379a000000000000000000000000000000000000000000000000000000000815260040161037a90612630565b60405180910390fd5b60006003600085815260200190815260200160002060070154146103dc576040517f08c379a00000000000000000000000000000000000000000000000000000000081526004016103d390612610565b60405180910390fd5b60006003600085815260200190815260200160002060050180548060200260200160405190810160405280929190818152602001828054801561047457602002820191906000526020600020905b8160009054906101000a900473ffffffffffffffffffffffffffffffffffffffff1673ffffffffffffffffffffffffffffffffffffffff168152602001906001019080831161042a575b505050505090506000600360008681526020019081526020016000206006018054806020026020016040519081016040528092919081815260200182805480156104dd57602002820191906000526020600020905b8154815260200190600101908083116104c9575b505050505090506000805b8351811015610650573373ffffffffffffffffffffffffffffffffffffffff16848281518110610541577f4e487b7100000000000000000000000000000000000000000000000000000000600052603260045260246000fd5b602002602001015173ffffffffffffffffffffffffffffffffffffffff16636352211e85848151811061059d577f4e487b7100000000000000000000000000000000000000000000000000000000600052603260045260246000fd5b60200260200101516040518263ffffffff1660e01b81526004016105c19190612752565b60206040518083038186803b1580156105d957600080fd5b505afa1580156105ed573d6000803e3d6000fd5b505050506040513d601f19601f820116820180604052508101906106119190611ffb565b73ffffffffffffffffffffffffffffffffffffffff16141561063d5760018261063a91906128c5565b91505b808061064890612a08565b9150506104e8565b508251811415610ac45761079a336003600089815260200190815260200160002060000160009054906101000a900473ffffffffffffffffffffffffffffffffffffffff16600360008a815260200190815260200160002060050180548060200260200160405190810160405280929190818152602001828054801561072b57602002820191906000526020600020905b8160009054906101000a900473ffffffffffffffffffffffffffffffffffffffff1673ffffffffffffffffffffffffffffffffffffffff16815260200190600101908083116106e1575b5050505050600360008b815260200190815260200160002060060180548060200260200160405190810160405280929190818152602001828054801561079057602002820191906000526020600020905b81548152602001906001019080831161077c575b5050505050611917565b84341061080457346003600088815260200190815260200160002060070181905550600154343373ffffffffffffffffffffffffffffffffffffffff167fc110f1fa8eb59796a89e21b621b8ab1512d82b9049a6b324aadfe4a78de6f94160405160405180910390a45b610944306003600089815260200190815260200160002060040160009054906101000a900473ffffffffffffffffffffffffffffffffffffffff16600360008a81526020019081526020016000206001018054806020026020016040519081016040528092919081815260200182805480156108d557602002820191906000526020600020905b8160009054906101000a900473ffffffffffffffffffffffffffffffffffffffff1673ffffffffffffffffffffffffffffffffffffffff168152602001906001019080831161088b575b5050505050600360008b815260200190815260200160002060020180548060200260200160405190810160405280929190818152602001828054801561093a57602002820191906000526020600020905b815481526020019060010190808311610926575b5050505050611917565b856003600088815260200190815260200160002060040160009054906101000a900473ffffffffffffffffffffffffffffffffffffffff1673ffffffffffffffffffffffffffffffffffffffff166003600089815260200190815260200160002060000160009054906101000a900473ffffffffffffffffffffffffffffffffffffffff1673ffffffffffffffffffffffffffffffffffffffff167fbad29f2bbbf6bb1e15563203bcdb0dd660c54eab078763eb66f797efa8f5e8c160405160405180910390a460036000878152602001908152602001600020600080820160006101000a81549073ffffffffffffffffffffffffffffffffffffffff0219169055600182016000610a569190611b1d565b600282016000610a669190611b3e565b60038201600090556004820160006101000a81549073ffffffffffffffffffffffffffffffffffffffff0219169055600582016000610aa59190611b1d565b600682016000610ab59190611b3e565b60078201600090555050610ace565b610acd86610f71565b5b505050505050565b610ade611b5f565b60036000838152602001908152602001600020604051806101000160405290816000820160009054906101000a900473ffffffffffffffffffffffffffffffffffffffff1673ffffffffffffffffffffffffffffffffffffffff1673ffffffffffffffffffffffffffffffffffffffff16815260200160018201805480602002602001604051908101604052809291908181526020018280548015610bd857602002820191906000526020600020905b8160009054906101000a900473ffffffffffffffffffffffffffffffffffffffff1673ffffffffffffffffffffffffffffffffffffffff1681526020019060010190808311610b8e575b5050505050815260200160028201805480602002602001604051908101604052809291908181526020018280548015610c3057602002820191906000526020600020905b815481526020019060010190808311610c1c575b50505050508152602001600382015481526020016004820160009054906101000a900473ffffffffffffffffffffffffffffffffffffffff1673ffffffffffffffffffffffffffffffffffffffff1673ffffffffffffffffffffffffffffffffffffffff16815260200160058201805480602002602001604051908101604052809291908181526020018280548015610d1e57602002820191906000526020600020905b8160009054906101000a900473ffffffffffffffffffffffffffffffffffffffff1673ffffffffffffffffffffffffffffffffffffffff1681526020019060010190808311610cd4575b5050505050815260200160068201805480602002602001604051908101604052809291908181526020018280548015610d7657602002820191906000526020600020905b815481526020019060010190808311610d62575b505050505081526020016007820154815250509050919050565b610d986119d9565b73ffffffffffffffffffffffffffffffffffffffff16610db66117ee565b73ffffffffffffffffffffffffffffffffffffffff1614610e0c576040517f08c379a0000000000000000000000000000000000000000000000000000000008152600401610e03906126b0565b60405180910390fd5b600073ffffffffffffffffffffffffffffffffffffffff168273ffffffffffffffffffffffffffffffffffffffff161415610e7c576040517f08c379a0000000000000000000000000000000000000000000000000000000008152600401610e7390612710565b60405180910390fd5b60008273ffffffffffffffffffffffffffffffffffffffff1682604051610ea290612559565b60006040518083038185875af1925050503d8060008114610edf576040519150601f19603f3d011682016040523d82523d6000602084013e610ee4565b606091505b5050905080610f28576040517f08c379a0000000000000000000000000000000000000000000000000000000008152600401610f1f90612650565b60405180910390fd5b818373ffffffffffffffffffffffffffffffffffffffff167f07edbd3928fafb0aa198081967441af6165cc563c21cc2e2c7451fcda65dd5a960405160405180910390a3505050565b3373ffffffffffffffffffffffffffffffffffffffff166003600083815260200190815260200160002060000160009054906101000a900473ffffffffffffffffffffffffffffffffffffffff1673ffffffffffffffffffffffffffffffffffffffff16148061104257503373ffffffffffffffffffffffffffffffffffffffff166003600083815260200190815260200160002060040160009054906101000a900473ffffffffffffffffffffffffffffffffffffffff1673ffffffffffffffffffffffffffffffffffffffff16145b611081576040517f08c379a0000000000000000000000000000000000000000000000000000000008152600401611078906126f0565b60405180910390fd5b6111c1306003600084815260200190815260200160002060000160009054906101000a900473ffffffffffffffffffffffffffffffffffffffff166003600085815260200190815260200160002060010180548060200260200160405190810160405280929190818152602001828054801561115257602002820191906000526020600020905b8160009054906101000a900473ffffffffffffffffffffffffffffffffffffffff1673ffffffffffffffffffffffffffffffffffffffff1681526020019060010190808311611108575b5050505050600360008681526020019081526020016000206002018054806020026020016040519081016040528092919081815260200182805480156111b757602002820191906000526020600020905b8154815260200190600101908083116111a3575b5050505050611917565b600060036000838152602001908152602001600020600301541461129557600060036000838152602001908152602001600020600301549050600060036000848152602001908152602001600020600301819055506003600083815260200190815260200160002060000160009054906101000a900473ffffffffffffffffffffffffffffffffffffffff1673ffffffffffffffffffffffffffffffffffffffff166108fc829081150290604051600060405180830381858888f19350505050158015611292573d6000803e3d6000fd5b50505b600060036000838152602001908152602001600020600701541461136957600060036000838152602001908152602001600020600701549050600060036000848152602001908152602001600020600701819055506003600083815260200190815260200160002060040160009054906101000a900473ffffffffffffffffffffffffffffffffffffffff1673ffffffffffffffffffffffffffffffffffffffff166108fc829081150290604051600060405180830381858888f19350505050158015611366573d6000803e3d6000fd5b50505b803373ffffffffffffffffffffffffffffffffffffffff167fa715d65b6e7107257e3f1469a8b36f0003c039bf6cc6279c26d814b77efb658060405160405180910390a360036000828152602001908152602001600020600080820160006101000a81549073ffffffffffffffffffffffffffffffffffffffff02191690556001820160006113f89190611b1d565b6002820160006114089190611b3e565b60038201600090556004820160006101000a81549073ffffffffffffffffffffffffffffffffffffffff02191690556005820160006114479190611b1d565b6006820160006114579190611b3e565b6007820160009055505050565b8160200151826040015180518251146114b2576040517f08c379a00000000000000000000000000000000000000000000000000000000081526004016114a990612670565b60405180910390fd5b8360a001518460c001518051825114611500576040517f08c379a00000000000000000000000000000000000000000000000000000000081526004016114f790612670565b60405180910390fd5b8480341015611544576040517f08c379a000000000000000000000000000000000000000000000000000000000815260040161153b90612690565b60405180910390fd5b866000015173ffffffffffffffffffffffffffffffffffffffff163373ffffffffffffffffffffffffffffffffffffffff16146115b6576040517f08c379a00000000000000000000000000000000000000000000000000000000081526004016115ad906126d0565b60405180910390fd5b60018060008282546115c891906128c5565b925050819055506115e3333089602001518a60400151611917565b60006003600060015481526020019081526020016000209050338160000160006101000a81548173ffffffffffffffffffffffffffffffffffffffff021916908373ffffffffffffffffffffffffffffffffffffffff160217905550876020015181600101908051906020019061165b929190611bd0565b508760400151816002019080519060200190611678929190611c5a565b508760a00151816005019080519060200190611695929190611bd0565b508760c001518160060190805190602001906116b2929190611c5a565b5086341061170b57348160030181905550600154343373ffffffffffffffffffffffffffffffffffffffff167fc110f1fa8eb59796a89e21b621b8ab1512d82b9049a6b324aadfe4a78de6f94160405160405180910390a45b87608001518160040160006101000a81548173ffffffffffffffffffffffffffffffffffffffff021916908373ffffffffffffffffffffffffffffffffffffffff1602179055505050505050505050565b6117646119d9565b73ffffffffffffffffffffffffffffffffffffffff166117826117ee565b73ffffffffffffffffffffffffffffffffffffffff16146117d8576040517f08c379a00000000000000000000000000000000000000000000000000000000081526004016117cf906126b0565b60405180910390fd5b6117e260006119e1565b565b6000600154905090565b60008060009054906101000a900473ffffffffffffffffffffffffffffffffffffffff16905090565b600047905090565b6118276119d9565b73ffffffffffffffffffffffffffffffffffffffff166118456117ee565b73ffffffffffffffffffffffffffffffffffffffff161461189b576040517f08c379a0000000000000000000000000000000000000000000000000000000008152600401611892906126b0565b60405180910390fd5b600073ffffffffffffffffffffffffffffffffffffffff168173ffffffffffffffffffffffffffffffffffffffff16141561190b576040517f08c379a0000000000000000000000000000000000000000000000000000000008152600401611902906125f0565b60405180910390fd5b611914816119e1565b50565b60005b81518110156119d2576119bf8585858481518110611961577f4e487b7100000000000000000000000000000000000000000000000000000000600052603260045260246000fd5b60200260200101518585815181106119a2577f4e487b7100000000000000000000000000000000000000000000000000000000600052603260045260246000fd5b602002602001015160405180602001604052806000815250611aa5565b80806119ca90612a08565b91505061191a565b5050505050565b600033905090565b60008060009054906101000a900473ffffffffffffffffffffffffffffffffffffffff169050816000806101000a81548173ffffffffffffffffffffffffffffffffffffffff021916908373ffffffffffffffffffffffffffffffffffffffff1602179055508173ffffffffffffffffffffffffffffffffffffffff168173ffffffffffffffffffffffffffffffffffffffff167f8be0079c531659141344cd1fd0a4f28419497f9722a3daafe3b4186f6b6457e060405160405180910390a35050565b8273ffffffffffffffffffffffffffffffffffffffff1663b88d4fde868685856040518563ffffffff1660e01b8152600401611ae49493929190612589565b600060405180830381600087803b158015611afe57600080fd5b505af1158015611b12573d6000803e3d6000fd5b505050505050505050565b5080546000825590600052602060002090810190611b3b9190611ca7565b50565b5080546000825590600052602060002090810190611b5c9190611ca7565b50565b604051806101000160405280600073ffffffffffffffffffffffffffffffffffffffff168152602001606081526020016060815260200160008152602001600073ffffffffffffffffffffffffffffffffffffffff1681526020016060815260200160608152602001600081525090565b828054828255906000526020600020908101928215611c49579160200282015b82811115611c485782518260006101000a81548173ffffffffffffffffffffffffffffffffffffffff021916908373ffffffffffffffffffffffffffffffffffffffff16021790555091602001919060010190611bf0565b5b509050611c569190611ca7565b5090565b828054828255906000526020600020908101928215611c96579160200282015b82811115611c95578251825591602001919060010190611c7a565b5b509050611ca39190611ca7565b5090565b5b80821115611cc0576000816000905550600101611ca8565b5090565b6000611cd7611cd284612792565b61276d565b90508083825260208201905082856020860282011115611cf657600080fd5b60005b85811015611d265781611d0c8882611dda565b845260208401935060208301925050600181019050611cf9565b5050509392505050565b6000611d43611d3e846127be565b61276d565b90508083825260208201905082856020860282011115611d6257600080fd5b60005b85811015611d925781611d788882611fbd565b845260208401935060208301925050600181019050611d65565b5050509392505050565b6000611daf611daa846127ea565b61276d565b905082815260208101848484011115611dc757600080fd5b611dd2848285612995565b509392505050565b600081359050611de981612db3565b92915050565b600081519050611dfe81612db3565b92915050565b600081359050611e1381612dca565b92915050565b600082601f830112611e2a57600080fd5b8135611e3a848260208601611cc4565b91505092915050565b600082601f830112611e5457600080fd5b8135611e64848260208601611d30565b91505092915050565b600082601f830112611e7e57600080fd5b8135611e8e848260208601611d9c565b91505092915050565b60006101008284031215611eaa57600080fd5b611eb561010061276d565b90506000611ec584828501611e04565b600083015250602082013567ffffffffffffffff811115611ee557600080fd5b611ef184828501611e19565b602083015250604082013567ffffffffffffffff811115611f1157600080fd5b611f1d84828501611e43565b6040830152506060611f3184828501611fbd565b6060830152506080611f4584828501611e04565b60808301525060a082013567ffffffffffffffff811115611f6557600080fd5b611f7184828501611e19565b60a08301525060c082013567ffffffffffffffff811115611f9157600080fd5b611f9d84828501611e43565b60c08301525060e0611fb184828501611fbd565b60e08301525092915050565b600081359050611fcc81612de1565b92915050565b600060208284031215611fe457600080fd5b6000611ff284828501611dda565b91505092915050565b60006020828403121561200d57600080fd5b600061201b84828501611def565b91505092915050565b6000806040838503121561203757600080fd5b600061204585828601611e04565b925050602061205685828601611fbd565b9150509250929050565b6000806000806080858703121561207657600080fd5b600061208487828801611dda565b945050602061209587828801611dda565b93505060406120a687828801611fbd565b925050606085013567ffffffffffffffff8111156120c357600080fd5b6120cf87828801611e6d565b91505092959194509250565b600080604083850312156120ee57600080fd5b600083013567ffffffffffffffff81111561210857600080fd5b61211485828601611e97565b925050602061212585828601611fbd565b9150509250929050565b60006020828403121561214157600080fd5b600061214f84828501611fbd565b91505092915050565b6000806040838503121561216b57600080fd5b600061217985828601611fbd565b925050602061218a85828601611fbd565b9150509250929050565b60006121a083836121d3565b60208301905092915050565b60006121b8838361253b565b60208301905092915050565b6121cd8161292d565b82525050565b6121dc8161291b565b82525050565b6121eb8161291b565b82525050565b60006121fc8261283b565b6122068185612876565b93506122118361281b565b8060005b838110156122425781516122298882612194565b97506122348361285c565b925050600181019050612215565b5085935050505092915050565b600061225a82612846565b6122648185612887565b935061226f8361282b565b8060005b838110156122a057815161228788826121ac565b975061229283612869565b925050600181019050612273565b5085935050505092915050565b6122b68161293f565b82525050565b60006122c782612851565b6122d18185612898565b93506122e18185602086016129a4565b6122ea81612aaf565b840191505092915050565b60006123026026836128b4565b915061230d82612ac0565b604082019050919050565b60006123256021836128b4565b915061233082612b0f565b604082019050919050565b6000612348602a836128b4565b915061235382612b5e565b604082019050919050565b600061236b6012836128b4565b915061237682612bad565b602082019050919050565b600061238e6033836128b4565b915061239982612bd6565b604082019050919050565b60006123b16044836128b4565b91506123bc82612c25565b606082019050919050565b60006123d46020836128b4565b91506123df82612c9a565b602082019050919050565b60006123f7602b836128b4565b915061240282612cc3565b604082019050919050565b600061241a6000836128a9565b915061242582612d12565b600082019050919050565b600061243d6036836128b4565b915061244882612d15565b604082019050919050565b60006124606027836128b4565b915061246b82612d64565b604082019050919050565b60006101008301600083015161248f60008601826121c4565b50602083015184820360208601526124a782826121f1565b915050604083015184820360408601526124c1828261224f565b91505060608301516124d6606086018261253b565b5060808301516124e960808601826121c4565b5060a083015184820360a086015261250182826121f1565b91505060c083015184820360c086015261251b828261224f565b91505060e083015161253060e086018261253b565b508091505092915050565b6125448161298b565b82525050565b6125538161298b565b82525050565b60006125648261240d565b9150819050919050565b600060208201905061258360008301846121e2565b92915050565b600060808201905061259e60008301876121e2565b6125ab60208301866121e2565b6125b8604083018561254a565b81810360608301526125ca81846122bc565b905095945050505050565b60006020820190506125ea60008301846122ad565b92915050565b60006020820190508181036000830152612609816122f5565b9050919050565b6000602082019050818103600083015261262981612318565b9050919050565b600060208201905081810360008301526126498161233b565b9050919050565b600060208201905081810360008301526126698161235e565b9050919050565b6000602082019050818103600083015261268981612381565b9050919050565b600060208201905081810360008301526126a9816123a4565b9050919050565b600060208201905081810360008301526126c9816123c7565b9050919050565b600060208201905081810360008301526126e9816123ea565b9050919050565b6000602082019050818103600083015261270981612430565b9050919050565b6000602082019050818103600083015261272981612453565b9050919050565b6000602082019050818103600083015261274a8184612476565b905092915050565b6000602082019050612767600083018461254a565b92915050565b6000612777612788565b905061278382826129d7565b919050565b6000604051905090565b600067ffffffffffffffff8211156127ad576127ac612a80565b5b602082029050602081019050919050565b600067ffffffffffffffff8211156127d9576127d8612a80565b5b602082029050602081019050919050565b600067ffffffffffffffff82111561280557612804612a80565b5b61280e82612aaf565b9050602081019050919050565b6000819050602082019050919050565b6000819050602082019050919050565b600081519050919050565b600081519050919050565b600081519050919050565b6000602082019050919050565b6000602082019050919050565b600082825260208201905092915050565b600082825260208201905092915050565b600082825260208201905092915050565b600081905092915050565b600082825260208201905092915050565b60006128d08261298b565b91506128db8361298b565b9250827fffffffffffffffffffffffffffffffffffffffffffffffffffffffffffffffff038211156129105761290f612a51565b5b828201905092915050565b60006129268261296b565b9050919050565b60006129388261296b565b9050919050565b60007fffffffff0000000000000000000000000000000000000000000000000000000082169050919050565b600073ffffffffffffffffffffffffffffffffffffffff82169050919050565b6000819050919050565b82818337600083830152505050565b60005b838110156129c25780820151818401526020810190506129a7565b838111156129d1576000848401525b50505050565b6129e082612aaf565b810181811067ffffffffffffffff821117156129ff576129fe612a80565b5b80604052505050565b6000612a138261298b565b91507fffffffffffffffffffffffffffffffffffffffffffffffffffffffffffffffff821415612a4657612a45612a51565b5b600182019050919050565b7f4e487b7100000000000000000000000000000000000000000000000000000000600052601160045260246000fd5b7f4e487b7100000000000000000000000000000000000000000000000000000000600052604160045260246000fd5b6000601f19601f8301169050919050565b7f4f776e61626c653a206e6577206f776e657220697320746865207a65726f206160008201527f6464726573730000000000000000000000000000000000000000000000000000602082015250565b7f5769736554726164653a207377617020616c726561647920696e69746961746560008201527f6400000000000000000000000000000000000000000000000000000000000000602082015250565b7f5769736554726164653a2063616c6c6572206973206e6f74207377617020706160008201527f72746963697061746f7200000000000000000000000000000000000000000000602082015250565b7f4661696c656420746f207472616e736665720000000000000000000000000000600082015250565b7f5769736554726164653a204e465420616e64204944206172726179732068617660008201527f6520746f2062652073616d65206c656e67746800000000000000000000000000602082015250565b7f5769736554726164653a2053656e742045544820616d6f756e74206e6565647360008201527f20746f206265206d6f7265206f7220657175616c206170706c69636174696f6e60208201527f2066656500000000000000000000000000000000000000000000000000000000604082015250565b7f4f776e61626c653a2063616c6c6572206973206e6f7420746865206f776e6572600082015250565b7f5769736554726164653a207468652073656e646572206d6f737420626520746860008201527f6520696e69746961746f72000000000000000000000000000000000000000000602082015250565b50565b7f5769736554726164653a2043616e27742063616e63656c20737761702c206d7560008201527f73742062652073776170207061727469636970616e7400000000000000000000602082015250565b7f5769736554726164653a207472616e7366657220746f20746865207a65726f2060008201527f6164647265737300000000000000000000000000000000000000000000000000602082015250565b612dbc8161291b565b8114612dc757600080fd5b50565b612dd38161292d565b8114612dde57600080fd5b50565b612dea8161298b565b8114612df557600080fd5b5056fea2646970667358221220704a31d3c57c189bfe717eea36c9d3b9a1d018dfccbfffdafce5fee4ca5ac5a264736f6c63430008040033",
  "linkReferences": {},
  "deployedLinkReferences": {}
}